{
  "contractName": "Housteca",
  "abi": [
    {
      "inputs": [
        {
          "internalType": "address",
          "name": "propertyToken",
          "type": "address"
        }
      ],
      "payable": false,
      "stateMutability": "nonpayable",
      "type": "constructor"
    },
    {
      "anonymous": false,
      "inputs": [
        {
          "indexed": true,
          "internalType": "address",
          "name": "admin",
          "type": "address"
        },
        {
          "indexed": true,
          "internalType": "uint8",
          "name": "level",
          "type": "uint8"
        }
      ],
      "name": "AdminAdded",
      "type": "event"
    },
    {
      "anonymous": false,
      "inputs": [
        {
          "indexed": true,
          "internalType": "address",
          "name": "admin",
          "type": "address"
        },
        {
          "indexed": true,
          "internalType": "uint8",
          "name": "level",
          "type": "uint8"
        }
      ],
      "name": "AdminRemoved",
      "type": "event"
    },
    {
      "anonymous": false,
      "inputs": [
        {
          "indexed": false,
          "internalType": "address",
          "name": "borrower",
          "type": "address"
        },
        {
          "indexed": false,
          "internalType": "address",
          "name": "localNode",
          "type": "address"
        },
        {
          "indexed": false,
          "internalType": "string",
          "name": "symbol",
          "type": "string"
        },
        {
          "indexed": false,
          "internalType": "uint256",
          "name": "downpaymentRatio",
          "type": "uint256"
        },
        {
          "indexed": false,
          "internalType": "uint256",
          "name": "targetAmount",
          "type": "uint256"
        },
        {
          "indexed": false,
          "internalType": "uint256",
          "name": "totalPayments",
          "type": "uint256"
        },
        {
          "indexed": false,
          "internalType": "uint256",
          "name": "insuredPayments",
          "type": "uint256"
        },
        {
          "indexed": false,
          "internalType": "uint256",
          "name": "paymentAmount",
          "type": "uint256"
        },
        {
          "indexed": false,
          "internalType": "uint256",
          "name": "localNodeFeeAmount",
          "type": "uint256"
        },
        {
          "indexed": false,
          "internalType": "uint256",
          "name": "houstecaFeeAmount",
          "type": "uint256"
        }
      ],
      "name": "InvestmentCreated",
      "type": "event"
    },
    {
      "anonymous": false,
      "inputs": [
        {
          "indexed": true,
          "internalType": "address",
          "name": "borrower",
          "type": "address"
        },
        {
          "indexed": false,
          "internalType": "string",
          "name": "symbol",
          "type": "string"
        },
        {
          "indexed": false,
          "internalType": "uint256",
          "name": "targetAmount",
          "type": "uint256"
        },
        {
          "indexed": false,
          "internalType": "uint256",
          "name": "insuredPayments",
          "type": "uint256"
        },
        {
          "indexed": false,
          "internalType": "uint256",
          "name": "totalPayments",
          "type": "uint256"
        },
        {
          "indexed": false,
          "internalType": "uint256",
          "name": "paymentAmount",
          "type": "uint256"
        },
        {
          "indexed": false,
          "internalType": "uint256",
          "name": "perPaymentInterestRatio",
          "type": "uint256"
        }
      ],
      "name": "InvestmentProposalCreated",
      "type": "event"
    },
    {
      "anonymous": false,
      "inputs": [
        {
          "indexed": true,
          "internalType": "address",
          "name": "borrower",
          "type": "address"
        }
      ],
      "name": "InvestmentProposalRemoved",
      "type": "event"
    },
    {
      "anonymous": false,
      "inputs": [
        {
          "indexed": true,
          "internalType": "address",
          "name": "investor",
          "type": "address"
        }
      ],
      "name": "InvestorAdded",
      "type": "event"
    },
    {
      "anonymous": false,
      "inputs": [
        {
          "indexed": true,
          "internalType": "address",
          "name": "investor",
          "type": "address"
        }
      ],
      "name": "InvestorRemoved",
      "type": "event"
    },
    {
      "anonymous": false,
      "inputs": [
        {
          "indexed": false,
          "internalType": "string",
          "name": "symbol",
          "type": "string"
        },
        {
          "indexed": true,
          "internalType": "address",
          "name": "contractAddress",
          "type": "address"
        }
      ],
      "name": "TokenAdded",
      "type": "event"
    },
    {
      "anonymous": false,
      "inputs": [
        {
          "indexed": false,
          "internalType": "string",
          "name": "symbol",
          "type": "string"
        },
        {
          "indexed": true,
          "internalType": "address",
          "name": "contractAddress",
          "type": "address"
        }
      ],
      "name": "TokenRemoved",
      "type": "event"
    },
    {
      "constant": true,
      "inputs": [],
      "name": "ADMIN_ROOT_LEVEL",
      "outputs": [
        {
          "internalType": "uint8",
          "name": "",
          "type": "uint8"
        }
      ],
      "payable": false,
      "stateMutability": "view",
      "type": "function"
    },
    {
      "constant": true,
      "inputs": [],
      "name": "PROPOSAL_GRACE_PERIOD",
      "outputs": [
        {
          "internalType": "uint256",
          "name": "",
          "type": "uint256"
        }
      ],
      "payable": false,
      "stateMutability": "view",
      "type": "function"
    },
    {
      "constant": true,
      "inputs": [],
      "name": "RATIO",
      "outputs": [
        {
          "internalType": "uint256",
          "name": "",
          "type": "uint256"
        }
      ],
      "payable": false,
      "stateMutability": "view",
      "type": "function"
    },
    {
      "constant": true,
      "inputs": [
        {
          "internalType": "address",
          "name": "",
          "type": "address"
        }
      ],
      "name": "_admins",
      "outputs": [
        {
          "internalType": "uint8",
          "name": "level",
          "type": "uint8"
        },
        {
          "internalType": "uint256",
          "name": "minimumFeeAmount",
          "type": "uint256"
        },
        {
          "internalType": "uint256",
          "name": "feeRatio",
          "type": "uint256"
        }
      ],
      "payable": false,
      "stateMutability": "view",
      "type": "function"
    },
    {
      "constant": true,
      "inputs": [],
      "name": "_houstecaFeeRatio",
      "outputs": [
        {
          "internalType": "uint256",
          "name": "",
          "type": "uint256"
        }
      ],
      "payable": false,
      "stateMutability": "view",
      "type": "function"
    },
    {
      "constant": true,
      "inputs": [],
      "name": "_houstecaMinimumFeeAmount",
      "outputs": [
        {
          "internalType": "uint256",
          "name": "",
          "type": "uint256"
        }
      ],
      "payable": false,
      "stateMutability": "view",
      "type": "function"
    },
    {
      "constant": true,
      "inputs": [
        {
          "internalType": "address",
          "name": "",
          "type": "address"
        }
      ],
      "name": "_investors",
      "outputs": [
        {
          "internalType": "bool",
          "name": "",
          "type": "bool"
        }
      ],
      "payable": false,
      "stateMutability": "view",
      "type": "function"
    },
    {
      "constant": true,
      "inputs": [
        {
          "internalType": "uint256",
          "name": "",
          "type": "uint256"
        }
      ],
      "name": "_loans",
      "outputs": [
        {
          "internalType": "address",
          "name": "",
          "type": "address"
        }
      ],
      "payable": false,
      "stateMutability": "view",
      "type": "function"
    },
    {
      "constant": true,
      "inputs": [],
      "name": "_propertyToken",
      "outputs": [
        {
          "internalType": "contract Property",
          "name": "",
          "type": "address"
        }
      ],
      "payable": false,
      "stateMutability": "view",
      "type": "function"
    },
    {
      "constant": true,
      "inputs": [
        {
          "internalType": "address",
          "name": "",
          "type": "address"
        }
      ],
      "name": "_proposals",
      "outputs": [
        {
          "internalType": "address",
          "name": "localNode",
          "type": "address"
        },
        {
          "internalType": "string",
          "name": "symbol",
          "type": "string"
        },
        {
          "internalType": "uint256",
          "name": "downpaymentRatio",
          "type": "uint256"
        },
        {
          "internalType": "uint256",
          "name": "targetAmount",
          "type": "uint256"
        },
        {
          "internalType": "uint256",
          "name": "totalPayments",
          "type": "uint256"
        },
        {
          "internalType": "uint256",
          "name": "insuredPayments",
          "type": "uint256"
        },
        {
          "internalType": "uint256",
          "name": "paymentAmount",
          "type": "uint256"
        },
        {
          "internalType": "uint256",
          "name": "perPaymentInterestRatio",
          "type": "uint256"
        },
        {
          "internalType": "uint256",
          "name": "localNodeFeeAmount",
          "type": "uint256"
        },
        {
          "internalType": "uint256",
          "name": "houstecaFeeAmount",
          "type": "uint256"
        },
        {
          "internalType": "uint256",
          "name": "created",
          "type": "uint256"
        }
      ],
      "payable": false,
      "stateMutability": "view",
      "type": "function"
    },
    {
      "constant": true,
      "inputs": [
        {
          "internalType": "string",
          "name": "",
          "type": "string"
        }
      ],
      "name": "_tokens",
      "outputs": [
        {
          "internalType": "address",
          "name": "",
          "type": "address"
        }
      ],
      "payable": false,
      "stateMutability": "view",
      "type": "function"
    },
    {
      "constant": true,
      "inputs": [
        {
          "internalType": "string",
          "name": "symbol",
          "type": "string"
        }
      ],
      "name": "getToken",
      "outputs": [
        {
          "internalType": "address",
          "name": "",
          "type": "address"
        }
      ],
      "payable": false,
      "stateMutability": "view",
      "type": "function"
    },
    {
      "constant": true,
      "inputs": [
        {
          "internalType": "address",
          "name": "addr",
          "type": "address"
        }
      ],
      "name": "isInvestor",
      "outputs": [
        {
          "internalType": "bool",
          "name": "",
          "type": "bool"
        }
      ],
      "payable": false,
      "stateMutability": "view",
      "type": "function"
    },
    {
      "constant": true,
      "inputs": [
        {
          "internalType": "address",
          "name": "addr",
          "type": "address"
        }
      ],
      "name": "isAdmin",
      "outputs": [
        {
          "internalType": "bool",
          "name": "",
          "type": "bool"
        }
      ],
      "payable": false,
      "stateMutability": "view",
      "type": "function"
    },
    {
      "constant": true,
      "inputs": [
        {
          "internalType": "address",
          "name": "addr",
          "type": "address"
        }
      ],
      "name": "isLocalNode",
      "outputs": [
        {
          "internalType": "bool",
          "name": "",
          "type": "bool"
        }
      ],
      "payable": false,
      "stateMutability": "view",
      "type": "function"
    },
    {
      "constant": true,
      "inputs": [],
      "name": "loans",
      "outputs": [
        {
          "internalType": "address[]",
          "name": "",
          "type": "address[]"
        }
      ],
      "payable": false,
      "stateMutability": "view",
      "type": "function"
    },
    {
      "constant": false,
      "inputs": [
        {
          "internalType": "address",
          "name": "addr",
          "type": "address"
        },
        {
          "internalType": "uint8",
          "name": "level",
          "type": "uint8"
        },
        {
          "internalType": "uint256",
          "name": "minimumFeeAmount",
          "type": "uint256"
        },
        {
          "internalType": "uint256",
          "name": "feeRatio",
          "type": "uint256"
        }
      ],
      "name": "addAdmin",
      "outputs": [],
      "payable": false,
      "stateMutability": "nonpayable",
      "type": "function"
    },
    {
      "constant": false,
      "inputs": [
        {
          "internalType": "address",
          "name": "addr",
          "type": "address"
        }
      ],
      "name": "removeAdmin",
      "outputs": [],
      "payable": false,
      "stateMutability": "nonpayable",
      "type": "function"
    },
    {
      "constant": false,
      "inputs": [
        {
          "internalType": "uint256",
          "name": "houstecaMinimumFeeAmount",
          "type": "uint256"
        }
      ],
      "name": "setHoustecaMinimumFeeAmount",
      "outputs": [],
      "payable": false,
      "stateMutability": "nonpayable",
      "type": "function"
    },
    {
      "constant": false,
      "inputs": [
        {
          "internalType": "uint256",
          "name": "houstecaFeeRatio",
          "type": "uint256"
        }
      ],
      "name": "setHoustecaFeeRatio",
      "outputs": [],
      "payable": false,
      "stateMutability": "nonpayable",
      "type": "function"
    },
    {
      "constant": false,
      "inputs": [
        {
          "internalType": "string",
          "name": "symbol",
          "type": "string"
        },
        {
          "internalType": "address",
          "name": "tokenAddress",
          "type": "address"
        }
      ],
      "name": "addToken",
      "outputs": [],
      "payable": false,
      "stateMutability": "nonpayable",
      "type": "function"
    },
    {
      "constant": false,
      "inputs": [
        {
          "internalType": "string",
          "name": "symbol",
          "type": "string"
        }
      ],
      "name": "removeToken",
      "outputs": [],
      "payable": false,
      "stateMutability": "nonpayable",
      "type": "function"
    },
    {
      "constant": false,
      "inputs": [
        {
          "internalType": "address",
          "name": "investor",
          "type": "address"
        }
      ],
      "name": "addInvestor",
      "outputs": [],
      "payable": false,
      "stateMutability": "nonpayable",
      "type": "function"
    },
    {
      "constant": false,
      "inputs": [
        {
          "internalType": "address",
          "name": "investor",
          "type": "address"
        }
      ],
      "name": "removeInvestor",
      "outputs": [],
      "payable": false,
      "stateMutability": "nonpayable",
      "type": "function"
    },
    {
      "constant": false,
      "inputs": [
        {
          "internalType": "address",
          "name": "borrower",
          "type": "address"
        },
        {
          "internalType": "string",
          "name": "symbol",
          "type": "string"
        },
        {
          "internalType": "uint256",
          "name": "downpaymentRatio",
          "type": "uint256"
        },
        {
          "internalType": "uint256",
          "name": "targetAmount",
          "type": "uint256"
        },
        {
          "internalType": "uint256",
          "name": "totalPayments",
          "type": "uint256"
        },
        {
          "internalType": "uint256",
          "name": "insuredPayments",
          "type": "uint256"
        },
        {
          "internalType": "uint256",
          "name": "paymentAmount",
          "type": "uint256"
        },
        {
          "internalType": "uint256",
          "name": "perPaymentInterestRatio",
          "type": "uint256"
        }
      ],
      "name": "createInvestmentProposal",
      "outputs": [],
      "payable": false,
      "stateMutability": "nonpayable",
      "type": "function"
    },
    {
      "constant": false,
      "inputs": [
        {
          "internalType": "address",
          "name": "borrower",
          "type": "address"
        }
      ],
      "name": "removeInvestmentProposal",
      "outputs": [],
      "payable": false,
      "stateMutability": "nonpayable",
      "type": "function"
    },
    {
      "constant": false,
      "inputs": [],
      "name": "createInvestment",
      "outputs": [],
      "payable": false,
      "stateMutability": "nonpayable",
      "type": "function"
    }
  ],
  "bytecode": "0x608060405234801561001057600080fd5b50604051615ccc380380615ccc8339818101604052602081101561003357600080fd5b505133600081815260208190526040808220805460ff60ff199091168117909155600680546001600160a01b0319166001600160a01b03871617905590519092917fecf816d8795961f614721716742bbd214a36aa170e0c5b3223b0da0604cbcf4991a350615c25806100a76000396000f3fe60806040523480156200001157600080fd5b5060043610620001d25760003560e01c80636f25fa9a1162000111578063c914c60611620000a5578063e9946b20116200007b578063e9946b2014620007b6578063f2e250421462000812578063f910831c146200083b578063fae8844514620008de57620001d2565b8063c914c606146200075a578063cee2a9cf1462000764578063e641bde1146200078d57620001d2565b8063b0b22c2c11620000e7578063b0b22c2c14620005d5578063bd5c569b1462000652578063bf21817d1462000672578063c1733f6814620006b057620001d2565b80636f25fa9a146200050157806382b0e0af14620005ab578063ad09fdce14620005b557620001d2565b80632daf2f0211620001895780634f3f6c29116200015f5780634f3f6c29146200039a57806359e741d21462000496578063680d6cf114620004b25780636862176a14620004d857620001d2565b80632daf2f0214620003475780633c1b8607146200035157806342714978146200037157620001d2565b80630a2cb6db14620001d75780630d5e205314620001f95780630e8624a414620002445780631785f53c14620002815780631f45592214620002aa57806324d7806c146200031e575b600080fd5b620001f760048036036020811015620001ef57600080fd5b5035620008e8565b005b62000222600480360360208110156200021157600080fd5b50356001600160a01b031662000944565b6040805160ff9094168452602084019290925282820152519081900360600190f35b6200026d600480360360208110156200025c57600080fd5b50356001600160a01b031662000969565b604080519115158252519081900360200190f35b620001f7600480360360208110156200029957600080fd5b50356001600160a01b03166200098a565b620001f760048036036020811015620002c257600080fd5b810190602081018135600160201b811115620002dd57600080fd5b820183602082011115620002f057600080fd5b803590602001918460018302840111600160201b831117156200031257600080fd5b50909250905062000a6a565b6200026d600480360360208110156200033657600080fd5b50356001600160a01b031662000b86565b620001f762000baa565b620001f7600480360360208110156200036957600080fd5b503562001126565b620001f7600480360360208110156200038957600080fd5b50356001600160a01b031662001182565b620003c360048036036020811015620003b257600080fd5b50356001600160a01b03166200122e565b604051808c6001600160a01b03166001600160a01b03168152602001806020018b81526020018a815260200189815260200188815260200187815260200186815260200185815260200184815260200183815260200182810382528c818151815260200191508051906020019080838360005b838110156200045057818101518382015260200162000436565b50505050905090810190601f1680156200047e5780820380516001836020036101000a031916815260200191505b509c5050505050505050505050505060405180910390f35b620004a06200131c565b60408051918252519081900360200190f35b620004bc62001328565b604080516001600160a01b039092168252519081900360200190f35b620001f760048036036020811015620004f057600080fd5b50356001600160a01b031662001337565b620004bc600480360360208110156200051957600080fd5b810190602081018135600160201b8111156200053457600080fd5b8201836020820111156200054757600080fd5b803590602001918460018302840111600160201b831117156200056957600080fd5b91908080601f0160208091040260200160405190810160405280939291908181526020018383808284376000920191909152509295506200143c945050505050565b620004a062001462565b620005bf62001468565b6040805160ff9092168252519081900360200190f35b620001f760048036036040811015620005ed57600080fd5b810190602081018135600160201b8111156200060857600080fd5b8201836020820111156200061b57600080fd5b803590602001918460018302840111600160201b831117156200063d57600080fd5b9193509150356001600160a01b03166200146d565b620004bc600480360360208110156200066a57600080fd5b50356200157b565b620001f7600480360360808110156200068a57600080fd5b506001600160a01b038135169060ff6020820135169060408101359060600135620015a3565b620004bc60048036036020811015620006c857600080fd5b810190602081018135600160201b811115620006e357600080fd5b820183602082011115620006f657600080fd5b803590602001918460018302840111600160201b831117156200071857600080fd5b91908080601f016020809104026020016040519081016040528093929190818152602001838380828437600092019190915250929550620016cc945050505050565b620004a062001782565b6200026d600480360360208110156200077c57600080fd5b50356001600160a01b031662001789565b620001f760048036036020811015620007a557600080fd5b50356001600160a01b0316620017a7565b620007c062001859565b60408051602080825283518183015283519192839290830191858101910280838360005b83811015620007fe578181015183820152602001620007e4565b505050509050019250505060405180910390f35b6200026d600480360360208110156200082a57600080fd5b50356001600160a01b0316620018be565b620001f760048036036101008110156200085457600080fd5b6001600160a01b038235169190810190604081016020820135600160201b8111156200087f57600080fd5b8201836020820111156200089257600080fd5b803590602001918460018302840111600160201b83111715620008b457600080fd5b919350915080359060208101359060408101359060608101359060808101359060a00135620018d3565b620004a062001ccd565b3360009081526020819052604090205460fe9060ff168111156200093e5760405162461bcd60e51b815260040180806020018281038252602f81526020018062005b10602f913960400191505060405180910390fd5b50600455565b60006020819052908152604090208054600182015460029092015460ff909116919083565b6001600160a01b031660009081526020819052604090205460ff1660fd1490565b6001600160a01b0381166000908152602081905260408082205433835291205460ff9182166001019182811691161015620009f75760405162461bcd60e51b815260040180806020018281038252602f81526020018062005b10602f913960400191505060405180910390fd5b6001600160a01b03821660008181526020819052604080822054905160ff90911692917f8a32ebea66d679a3740a3a9b1cdc54f3a7fcf97b499803eb9211eb15edfe24a191a3506001600160a01b03166000908152602081905260408120805460ff191681556001810182905560020155565b3360009081526020819052604090205460fe9060ff1681111562000ac05760405162461bcd60e51b815260040180806020018281038252602f81526020018062005b10602f913960400191505060405180910390fd5b6002838360405180838380828437919091019485525050604080519384900360209081018520548186529085018790526001600160a01b0316937f1adb68f0a540855cafa9d341c1e94a36fa13b8a15ff602507addfe49c0f018d19350879250869181908101848480828437600083820152604051601f909101601f19169092018290039550909350505050a260028383604051808383808284379190910194855250506040519283900360200190922080546001600160a01b03191690555050505050565b6001600160a01b031660009081526020819052604090205460fe60ff909116101590565b3360009081526003602081905260409091209081015462000bfd5760405162461bcd60e51b815260040180806020018281038252603a81526020018062005a67603a913960400191505060405180910390fd5b600a810154429062000c19906213c68063ffffffff62001cd316565b1062000c575760405162461bcd60e51b8152600401808060200182810382526039815260200180620059f86039913960400191505060405180910390fd5b600062000d04826001018054600181600116156101000203166002900480601f01602080910402602001604051908101604052809291908181526020018280546001816001161561010002031660029004801562000cf95780601f1062000ccd5761010080835404028352916020019162000cf9565b820191906000526020600020905b81548152906001019060200180831162000cdb57829003601f168201915b5050505050620016cc565b90506000308360000160009054906101000a90046001600160a01b031683856002015486600301548760040154886005015489600601548a600701548b600801548c6009015460405162000d589062001ed8565b6001600160a01b039b8c168152998b1660208b0152979099166040808a01919091526060890196909652608088019490945260a087019290925260c086015260e085015261010084015261012083019390935261014082015290519081900361016001906000f08015801562000dd2573d6000803e3d6000fd5b50600780546001810182556000919091527fa66cc928b5edb82af9bd49922954155ab7b0942694bea4ce44661d9a8736c6880180546001600160a01b0319166001600160a01b038381169190911790915560065460408051606085901b6bffffffffffffffffffffffff1916602080830191909152825160148184030181526034830180855281519183019190912063556f0dc760e01b909152925195965092909316936367c849199391928692869263556f0dc792603880840193919291829003018186803b15801562000ea657600080fd5b505afa15801562000ebb573d6000803e3d6000fd5b505050506040513d602081101562000ed257600080fd5b505160408051600080825260208201928390526001600160e01b031960e088901b168352602482018681526001600160a01b0386166044840152600a9490940a60648301819052608060848401908152835160a4850181905291959394909260c4860192908190849084905b8381101562000f5857818101518382015260200162000f3e565b50505050905090810190601f16801562000f865780820380516001836020036101000a031916815260200191505b5095505050505050600060405180830381600087803b15801562000fa957600080fd5b505af115801562000fbe573d6000803e3d6000fd5b505050507f5787880857796150c40f99d7941d7c9293dc20b03e3aef4f582a21e1651ed2b3338460000160009054906101000a90046001600160a01b03168560010186600201548760030154886004015489600501548a600601548b600801548c60090154604051808b6001600160a01b03166001600160a01b031681526020018a6001600160a01b03166001600160a01b031681526020018060200189815260200188815260200187815260200186815260200185815260200184815260200183815260200182810382528a8181546001816001161561010002031660029004815260200191508054600181600116156101000203166002900480156200110a5780601f10620010de576101008083540402835291602001916200110a565b820191906000526020600020905b815481529060010190602001808311620010ec57829003601f168201915b50509b50505050505050505050505060405180910390a1505050565b3360009081526020819052604090205460fe9060ff168111156200117c5760405162461bcd60e51b815260040180806020018281038252602f81526020018062005b10602f913960400191505060405180910390fd5b50600555565b3360009081526020819052604090205460fd9060ff16811115620011d85760405162461bcd60e51b815260040180806020018281038252602f81526020018062005b10602f913960400191505060405180910390fd5b6040516001600160a01b038316907fba0013628ccb89af5bb18edf764d3a7b35c07b894848b8e6fd3434719de39c7d90600090a2506001600160a01b03166000908152600160205260409020805460ff19169055565b6003602090815260009182526040918290208054600180830180548651600261010094831615949094026000190190911692909204601f81018690048602830186019096528582526001600160a01b03909216949293909290830182828015620012dc5780601f10620012b057610100808354040283529160200191620012dc565b820191906000526020600020905b815481529060010190602001808311620012be57829003601f168201915b50505050509080600201549080600301549080600401549080600501549080600601549080600701549080600801549080600901549080600a015490508b565b670de0b6b3a764000081565b6006546001600160a01b031681565b3360009081526020819052604090205460fd9060ff168111156200138d5760405162461bcd60e51b815260040180806020018281038252602f81526020018062005b10602f913960400191505060405180910390fd5b6040516001600160a01b038316907f80b29f59ac400de67274adba1e819ca6c81cf99232b519f33af84aad8e9391b590600090a26001600160a01b038216600090815260036020526040812080546001600160a01b031916815590620013f7600183018262001ee6565b5060006002820181905560038201819055600482018190556005820181905560068201819055600782018190556008820181905560098201819055600a909101555050565b80516020818301810180516002825292820191909301209152546001600160a01b031681565b60045481565b60ff81565b3360009081526020819052604090205460fe9060ff16811115620014c35760405162461bcd60e51b815260040180806020018281038252602f81526020018062005b10602f913960400191505060405180910390fd5b816001600160a01b03167f6d97a31531bdb3c43d920bc996ec8b9fd7733f5f55a81cd74700f88631fc6032858560405180806020018281038252848482818152602001925080828437600083820152604051601f909101601f19169092018290039550909350505050a28160028585604051808383808284379190910194855250506040519283900360200190922080546001600160a01b03949094166001600160a01b031990941693909317909255505050505050565b600781815481106200158957fe5b6000918252602090912001546001600160a01b0316905081565b3360009081526020819052604090205460fe9060ff16811115620015f95760405162461bcd60e51b815260040180806020018281038252602f81526020018062005b10602f913960400191505060405180910390fd5b60008460ff16116200163d5760405162461bcd60e51b815260040180806020018281038252603081526020018062005b606030913960400191505060405180910390fd5b60405160ff8516906001600160a01b038716907fecf816d8795961f614721716742bbd214a36aa170e0c5b3223b0da0604cbcf4990600090a3506040805160608101825260ff948516815260208082019485528183019384526001600160a01b039690961660009081529586905294209351845460ff1916931692909217835551600183015551600290910155565b6000806002836040518082805190602001908083835b60208310620017035780518252601f199092019160209182019101620016e2565b51815160001960209485036101000a019081169019919091161790529201948552506040519384900301909220546001600160a01b031692505050806200177c5760405162461bcd60e51b815260040180806020018281038252602181526020018062005bd06021913960400191505060405180910390fd5b92915050565b6213c68081565b6001600160a01b031660009081526001602052604090205460ff1690565b3360009081526020819052604090205460fd9060ff16811115620017fd5760405162461bcd60e51b815260040180806020018281038252602f81526020018062005b10602f913960400191505060405180910390fd5b6040516001600160a01b038316907f62e6a5118be03f9bfedb79b0ed7ed75ee4a9e15fc4c69d2c4976acde26fa2d5f90600090a2506001600160a01b03166000908152600160208190526040909120805460ff19169091179055565b60606007805480602002602001604051908101604052809291908181526020018280548015620018b357602002820191906000526020600020905b81546001600160a01b0316815260019091019060200180831162001894575b505050505090505b90565b60016020526000908152604090205460ff1681565b3360009081526020819052604090205460fd9060ff16811115620019295760405162461bcd60e51b815260040180806020018281038252602f81526020018062005b10602f913960400191505060405180910390fd5b600086116200196a5760405162461bcd60e51b815260040180806020018281038252603181526020018062005aa16031913960400191505060405180910390fd5b60008311620019ab5760405162461bcd60e51b815260040180806020018281038252603681526020018062005a316036913960400191505060405180910390fd5b60008511620019ec5760405162461bcd60e51b815260040180806020018281038252604081526020018062005b906040913960400191505060405180910390fd5b670de0b6b3a7640000871062001a345760405162461bcd60e51b815260040180806020018281038252603e81526020018062005ad2603e913960400191505060405180910390fd5b60006001600160a01b031660028a8a6040518083838082843791909101948552505060405192839003602001909220546001600160a01b03169290921415915062001ac89050576040805162461bcd60e51b815260206004820152601e60248201527f486f7573746563613a20496e76616c696420746f6b656e2073796d626f6c0000604482015290519081900360640190fd5b33600081815260208181526040918290208251610160810184529384528251601f8d018390048302810183019093528b83529291828201918d908d9081908401838280828437600092019190915250505090825250602081018a905260408101899052606081018890526080810187905260a0810186905260c081018590526001830154600284015460e09092019162001b6491908b62001d35565b815260200162001b7a6004546005548b62001d35565b8152426020918201526001600160a01b038d811660009081526003835260409020835181546001600160a01b0319169216919091178155828201518051919262001bcd9260018501929091019062001f31565b5060408201518160020155606082015181600301556080820151816004015560a0820151816005015560c0820151816006015560e082015181600701556101008201518160080155610120820151816009015561014082015181600a01559050508a6001600160a01b03167f9672ef37cc5c9c54e8b6ee636782d6f27950cb427e02eb754463dbb4c8ba2d8c8b8b8a898b8a8a60405180806020018781526020018681526020018581526020018481526020018381526020018281038252898982818152602001925080828437600083820152604051601f909101601f19169092018290039a509098505050505050505050a25050505050505050505050565b60055481565b60008282018381101562001d2e576040805162461bcd60e51b815260206004820152601b60248201527f536166654d6174683a206164646974696f6e206f766572666c6f770000000000604482015290519081900360640190fd5b9392505050565b600062001d6e8462001d68670de0b6b3a764000062001d5b868863ffffffff62001d7616565b9063ffffffff62001dd416565b62001e18565b949350505050565b60008262001d87575060006200177c565b8282028284828162001d9557fe5b041462001d2e5760405162461bcd60e51b815260040180806020018281038252602181526020018062005b3f6021913960400191505060405180910390fd5b600062001d2e83836040518060400160405280601a81526020017f536166654d6174683a206469766973696f6e206279207a65726f00000000000081525062001e31565b60008183101562001e2a578162001d2e565b5090919050565b6000818362001ec15760405162461bcd60e51b81526004018080602001828103825283818151815260200191508051906020019080838360005b8381101562001e8557818101518382015260200162001e6b565b50505050905090810190601f16801562001eb35780820380516001836020036101000a031916815260200191505b509250505060405180910390fd5b50600083858162001ece57fe5b0495945050505050565b613a248062001fd483390190565b50805460018160011615610100020316600290046000825580601f1062001f0e575062001f2e565b601f01602090049060005260206000209081019062001f2e919062001fb6565b50565b828054600181600116156101000203166002900490600052602060002090601f016020900481019282601f1062001f7457805160ff191683800117855562001fa4565b8280016001018555821562001fa4579182015b8281111562001fa457825182559160200191906001019062001f87565b5062001fb292915062001fb6565b5090565b620018bb91905b8082111562001fb2576000815560010162001fbd56fe60806040523480156200001157600080fd5b5060405162003a2438038062003a24833981016040819052620000349162000201565b600280546001600160a01b03808e166001600160a01b031992831617909255600480548d841690831617905560018054928c169282169290921790915560128990556009889055600a879055601186905560138590556014849055601783905560188290556000805490911633179055620000c2426213c680620020b462000186602090811b91909117901c565b600e556001805460ff60a01b19169055604051731820a4b7618bde71dce8cdc73aab6c95905fad24906329965a1d903090620000fe9062000398565b6040519081900381207fffffffff0000000000000000000000000000000000000000000000000000000060e085901b1682526200014192913090600401620003a5565b600060405180830381600087803b1580156200015c57600080fd5b505af115801562000171573d6000803e3d6000fd5b50505050505050505050505050505062000454565b600082820183811015620001d1576040517f08c379a0000000000000000000000000000000000000000000000000000000008152600401620001c890620003db565b60405180910390fd5b90505b92915050565b8051620001d48162000424565b8051620001d4816200043e565b8051620001d48162000449565b60008060008060008060008060008060006101608c8e0312156200022457600080fd5b6000620002328e8e620001e7565b9b50506020620002458e828f01620001da565b9a50506040620002588e828f01620001da565b99505060606200026b8e828f01620001f4565b98505060806200027e8e828f01620001f4565b97505060a0620002918e828f01620001f4565b96505060c0620002a48e828f01620001f4565b95505060e0620002b78e828f01620001f4565b945050610100620002cb8e828f01620001f4565b935050610120620002df8e828f01620001f4565b925050610140620002f38e828f01620001f4565b9150509295989b509295989b9093969950565b6200031181620003fb565b82525050565b620003118162000408565b600062000331601b83620003ed565b7f536166654d6174683a206164646974696f6e206f766572666c6f770000000000815260200192915050565b60006200036c601583620003f6565b7f455243373737546f6b656e73526563697069656e740000000000000000000000815260150192915050565b6000620001d4826200035d565b60608101620003b5828662000306565b620003c4602083018562000317565b620003d3604083018462000306565b949350505050565b60208082528101620001d48162000322565b90815260200190565b919050565b6000620001d48262000418565b90565b6000620001d482620003fb565b6001600160a01b031690565b6200042f81620003fb565b81146200043b57600080fd5b50565b6200042f816200040b565b6200042f8162000408565b6135c080620004646000396000f3fe608060405234801561001057600080fd5b50600436106103cf5760003560e01c806381e5e4cd116101ff578063c63c5bd11161011a578063eaf6e483116100ad578063f0b156621161007c578063f0b15662146106bf578063f90c3f27146106c7578063fbf011bd146106cf578063fee106b2146106d7576103cf565b8063eaf6e48314610689578063ecd0c0c31461069c578063edb9a5c0146106a4578063ef1d5565146106b7576103cf565b8063d8cc7352116100e9578063d8cc735214610669578063d8f4fc3314610671578063dc99681f14610679578063df7ce25f14610681576103cf565b8063c63c5bd114610633578063cc1786c114610646578063cdc7c4971461064e578063cddaa82b14610656576103cf565b8063ac42bc5811610192578063bc5f2a8b11610161578063bc5f2a8b14610608578063be76745f14610610578063c27b2c2d14610618578063c290d69114610620576103cf565b8063ac42bc58146105e8578063b2aedb74146105f0578063baacc5cc146105f8578063bb48934714610600576103cf565b8063a11d2bdd116101ce578063a11d2bdd146105c8578063a2e62045146105d0578063a8c954d8146105d8578063a91de5d5146105e0576103cf565b806381e5e4cd1461059d5780638a77ce77146105a55780638beb3729146105ad5780639d61edd8146105b5576103cf565b80633709c014116102ef5780635433e2f51161028257806363837ead1161025157806363837ead1461056557806369821c8c1461056d578063705caf5f146105755780637ce394da1461058a576103cf565b80635433e2f51461054557806359e741d21461054d5780635af1e27e146105555780635b0a00331461055d576103cf565b806347eff865116102be57806347eff8651461050f5780634e402246146105225780634eedeab714610535578063537f80c81461053d576103cf565b80633709c014146104d55780633abd5f47146104ea5780633cdf644a146104f257806343ae269514610507576103cf565b80631fa1b60c116103675780632a14b80a116103365780632a14b80a1461049f5780632afcf480146104a75780632e05e143146104ba578063354216a3146104cd576103cf565b80631fa1b60c146104745780632087027914610487578063239c49dd1461048f57806325a5d09f14610497576103cf565b80630fb3844c116103a35780630fb3844c1461043c57806311619b2714610451578063166f1779146104595780631a39d8ef1461046c576103cf565b806223de29146103d457806304536f1c146103e95780630d37dd33146104075780630e8624a41461041c575b600080fd5b6103e76103e23660046124db565b6106ea565b005b6103f161080b565b6040516103fe9190613260565b60405180910390f35b61040f610823565b6040516103fe91906131a4565b61042f61042a3660046124b5565b610829565b6040516103fe9190613196565b610444610840565b6040516103fe919061326e565b61040f610850565b6103e76104673660046125f6565b610857565b61040f61089b565b61042f6104823660046124b5565b6108ba565b61040f610941565b61040f610948565b61040f61094e565b61040f610954565b6103e76104b53660046125ba565b610982565b61040f6104c83660046124b5565b610a31565b61042f610a43565b6104dd610a70565b6040516103fe919061324f565b61040f610afe565b6104fa610b04565b6040516103fe9190613185565b6103f1610bdc565b61042f61051d366004612638565b610c59565b61042f6105303660046124b5565b610ceb565b6103e7610d00565b6103e7610dbb565b61040f610ebc565b61040f610ed5565b6103f1610ee1565b61040f610ef0565b61040f610ef6565b61040f610efc565b61057d610f13565b6040516103fe9190613126565b61040f6105983660046124b5565b610f22565b61042f610f34565b61040f610f60565b61040f610f66565b61040f6105c33660046124b5565b610f6c565b6104dd610f7e565b6103e7610fd9565b61042f611078565b61040f6110ac565b61042f6110b2565b61040f6110de565b61040f6110e4565b61040f6110ea565b61040f6110f0565b61040f611121565b6103e7611127565b6103e761062e3660046125ba565b61129e565b6103e76106413660046125f6565b61134a565b6103e7611436565b61040f611517565b6104dd6106643660046125ba565b61151d565b61040f611590565b61040f611596565b61040f61159c565b6103e76115a2565b61042f6106973660046124b5565b611771565b6103f1611785565b61042f6106b23660046124b5565b611794565b61042f6117b1565b6103e76117de565b61040f611928565b61040f61192f565b6103e76106e53660046125ba565b611935565b6001546001600160a01b0316331461071d5760405162461bcd60e51b8152600401610714906133dc565b60405180910390fd5b6001600160a01b03861630146107455760405162461bcd60e51b81526004016107149061333c565b6000600154600160a01b900460ff16600781111561075f57fe5b14156107745761076f8786611a03565b610801565b60018054600160a01b900460ff16600781111561078d57fe5b141561079d5761076f8786611aa6565b6003600154600160a01b900460ff1660078111156107b757fe5b14806107da57506006600154600160a01b900460ff1660078111156107d857fe5b145b156107e95761076f8786611b71565b60405162461bcd60e51b81526004016107149061340c565b5050505050505050565b731820a4b7618bde71dce8cdc73aab6c95905fad2481565b600c5481565b6004546001600160a01b038281169116145b919050565b600154600160a01b900460ff1681565b6213c68081565b6003805460018101808355600092909252610895907fc2575a0e9e593c00f959f8c92f12db2869c3395a3b0502d05e2516446f71f85b01848461228a565b50505050565b60006108b4600a54601354611e7590919063ffffffff16565b90505b90565b60025460405163cee2a9cf60e01b81526000916001600160a01b03169063cee2a9cf906108eb908590600401613126565b60206040518083038186803b15801561090357600080fd5b505afa158015610917573d6000803e3d6000fd5b505050506040513d601f19601f8201168201806040525061093b919081019061259c565b92915050565b62278d0081565b60145481565b60135481565b60003060405160200161096791906130e4565b60405160208183030381529060405280519060200120905090565b6001546040516323b872dd60e01b81526001600160a01b03909116906323b872dd906109b690339030908690600401613134565b602060405180830381600087803b1580156109d057600080fd5b505af11580156109e4573d6000803e3d6000fd5b505050506040513d601f19601f82011682018060405250610a08919081019061259c565b610a245760405162461bcd60e51b8152600401610714906133fc565b610a2e3382611aa6565b50565b60076020526000908152604090205481565b60006002600154600160a01b900460ff166007811115610a5f57fe5b1480156108b4575050601054421190565b601b805460408051602060026001851615610100026000190190941693909304601f81018490048402820184019092528181529291830182828015610af65780601f10610acb57610100808354040283529160200191610af6565b820191906000526020600020905b815481529060010190602001808311610ad957829003601f168201915b505050505081565b600a5481565b60606003805480602002602001604051908101604052809291908181526020016000905b82821015610bd35760008481526020908190208301805460408051601f6002600019610100600187161502019094169390930492830185900485028101850190915281815292830182828015610bbf5780601f10610b9457610100808354040283529160200191610bbf565b820191906000526020600020905b815481529060010190602001808311610ba257829003601f168201915b505050505081526020019060010190610b28565b50505050905090565b6002546040805163680d6cf160e01b815290516000926001600160a01b03169163680d6cf1916004808301926020929190829003018186803b158015610c2157600080fd5b505afa158015610c35573d6000803e3d6000fd5b505050506040513d601f19601f820116820180604052506108b49190810190612689565b600060606040518060400160405280601c81526020017f19457468657265756d205369676e6564204d6573736167653a0a3332000000008152509050600081601c54604051602001610cac9291906130f9565b604051602081830303815290604052805190602001209050836001600160a01b0316610cd88287611eb6565b6001600160a01b03161495945050505050565b60086020526000908152604090205460ff1681565b6002600154600160a01b900460ff166007811115610d1a57fe5b1480610d3c575060018054600160a01b900460ff166007811115610d3a57fe5b145b610d585760405162461bcd60e51b8152600401610714906133cc565b610d6133610829565b610d7d5760405162461bcd60e51b81526004016107149061339c565b610d876005611f92565b600454601754610da0916001600160a01b03169061202f565b50601854601954610db69163ffffffff6120b416565b601955565b60018054600160a01b900460ff166007811115610dd457fe5b1480610df757506005600154600160a01b900460ff166007811115610df557fe5b145b610e135760405162461bcd60e51b8152600401610714906133cc565b610e1c33611794565b610e385760405162461bcd60e51b81526004016107149061327c565b6000610e6c670de0b6b3a7640000610e60610e516110f0565b6019549063ffffffff611e7516565b9063ffffffff6120d916565b90506000610e85826016546120b490919063ffffffff16565b33600090815260056020526040812055601654909150610eab908263ffffffff61211b16565b601655610eb8338261215d565b5050565b60006108b46017546018546120b490919063ffffffff16565b670de0b6b3a764000081565b6002546001600160a01b031681565b60155481565b60125481565b604051610f089061311b565b604051809103902081565b6000546001600160a01b031681565b60066020526000908152604090205481565b600080600154600160a01b900460ff166007811115610f4f57fe5b1480156108b4575050600f54421190565b600b5481565b600d5481565b60056020526000908152604090205481565b601a805460408051602060026001851615610100026000190190941693909304601f81018490048402820184019092528181529291830182828015610af65780601f10610acb57610100808354040283529160200191610af6565b610fe16110b2565b15610ff557610ff06005611f92565b611076565b610ffd610f34565b1561102a5760005461101f906001600160a01b031661101a610ebc565b61202f565b50610ff06005611f92565b6110326117b1565b1561107657601154600c541061104c57610ff06007611f92565b6110566006611f92565b600c805460010190556110724262278d0063ffffffff6120b416565b600d555b565b60006110826110b2565b806110905750611090610a43565b8061109e575061109e610f34565b806108b457506108b46117b1565b600f5481565b600080600154600160a01b900460ff1660078111156110cd57fe5b1480156108b4575050600e54421190565b60095481565b60115481565b60165481565b6009543360009081526005602052604081205490916108b491610e6090670de0b6b3a764000063ffffffff611e7516565b60175481565b61113033611794565b61114c5760405162461bcd60e51b8152600401610714906132cc565b6004600154600160a01b900460ff16600781111561116657fe5b148061118957506007600154600160a01b900460ff16600781111561118757fe5b145b806111ab57506003600154600160a01b900460ff1660078111156111a957fe5b145b806111cd57506006600154600160a01b900460ff1660078111156111cb57fe5b145b6111e95760405162461bcd60e51b8152600401610714906133ac565b6000611211670de0b6b3a7640000610e606112026110f0565b6013549063ffffffff611e7516565b600b543360009081526006602052604090205491925011156112485733600090815260066020526040902080546001019055611294565b600c5433600090815260076020526040902054101561127c5733600090815260076020526040902080546001019055611294565b60405162461bcd60e51b81526004016107149061328c565b610a2e338261215d565b6001546040516323b872dd60e01b81526001600160a01b03909116906323b872dd906112d290339030908690600401613134565b602060405180830381600087803b1580156112ec57600080fd5b505af1158015611300573d6000803e3d6000fd5b505050506040513d601f19601f82011682018060405250611324919081019061259c565b6113405760405162461bcd60e51b8152600401610714906133fc565b610a2e3382611b71565b600280600154600160a01b900460ff16600781111561136557fe5b146113825760405162461bcd60e51b8152600401610714906133ac565b6113c383838080601f016020809104026020016040519081016040528093929190818152602001838380828437600092019190915250339250610c59915050565b6113df5760405162461bcd60e51b81526004016107149061332c565b6113e833611771565b156113ff576113f9601b848461228a565b50611431565b61140833610829565b15611419576113f9601a848461228a565b60405162461bcd60e51b8152600401610714906132ac565b505050565b61143f33611771565b61145b5760405162461bcd60e51b8152600401610714906133bc565b6000611465610ebc565b6001546000546040516323b872dd60e01b81529293506001600160a01b03918216926323b872dd9261149f9216903090869060040161315c565b602060405180830381600087803b1580156114b957600080fd5b505af11580156114cd573d6000803e3d6000fd5b505050506040513d601f19601f820116820180604052506114f1919081019061259c565b61150d5760405162461bcd60e51b8152600401610714906133fc565b610a2e3382611a03565b60105481565b6003818154811061152a57fe5b600091825260209182902001805460408051601f6002600019610100600187161502019094169390930492830185900485028101850190915281815293509091830182828015610af65780601f10610acb57610100808354040283529160200191610af6565b60195481565b600e5481565b601c5481565b600280600154600160a01b900460ff1660078111156115bd57fe5b146115da5760405162461bcd60e51b8152600401610714906133ac565b601b5460026000196101006001841615020190911604158015906116125750601a546002600019610100600184161502019091160415155b61162e5760405162461bcd60e51b81526004016107149061330c565b61163733610829565b6116535760405162461bcd60e51b81526004016107149061338c565b600061166c601154601354611e7590919063ffffffff16565b905060006116858260095461211b90919063ffffffff16565b905061169a4262278d0063ffffffff6120b416565b600d556116a76003611f92565b6004546116bd906001600160a01b03168261215d565b6000611758670de0b6b3a7640000610e606116d6610bdc565b6001600160a01b031663556f0dc76040518163ffffffff1660e01b815260040160206040518083038186803b15801561170e57600080fd5b505afa158015611722573d6000803e3d6000fd5b505050506040513d601f19601f8201168201806040525061174691908101906125d8565b60125490600a0a63ffffffff611e7516565b600054909150610895906001600160a01b031682612183565b6000546001600160a01b0390811691161490565b6001546001600160a01b031681565b6001600160a01b0316600090815260056020526040902054151590565b60006003600154600160a01b900460ff1660078111156117cd57fe5b1480156108b4575050600d54421190565b6117e733611794565b6118035760405162461bcd60e51b8152600401610714906132fc565b3360009081526008602052604090205460ff16156118335760405162461bcd60e51b8152600401610714906133ec565b600061183d610bdc565b6001600160a01b031663556f0dc76040518163ffffffff1660e01b815260040160206040518083038186803b15801561187557600080fd5b505afa158015611889573d6000803e3d6000fd5b505050506040513d601f19601f820116820180604052506118ad91908101906125d8565b600a0a905060006118e56118d8670de0b6b3a7640000610e6085601254611e7590919063ffffffff16565b839063ffffffff61211b16565b905060006119016118f46110f0565b839063ffffffff611e7516565b336000818152600860205260409020805460ff191660011790559091506114319082612183565b6276a70081565b60185481565b600280600154600160a01b900460ff16600781111561195057fe5b1461196d5760405162461bcd60e51b8152600401610714906133ac565b61197633610829565b6119925760405162461bcd60e51b81526004016107149061339c565b601b546002600019610100600184161502019091160415806119c75750601a5460026000196101006001841615020190911604155b6119e35760405162461bcd60e51b8152600401610714906132dc565b601c82905560006119f5601a82612308565b506000611431601b82612308565b600080600154600160a01b900460ff166007811115611a1e57fe5b14611a3b5760405162461bcd60e51b8152600401610714906133ac565b611a4483611771565b611a605760405162461bcd60e51b8152600401610714906132ec565b611a68610ebc565b8214611a865760405162461bcd60e51b81526004016107149061341c565b611a99426276a70063ffffffff6120b416565b600f556114316003611f92565b600180600154600160a01b900460ff166007811115611ac157fe5b14611ade5760405162461bcd60e51b8152600401610714906133ac565b611ae7836108ba565b611b035760405162461bcd60e51b81526004016107149061334c565b601654611b16908363ffffffff6120b416565b60168190556009541015611b3c5760405162461bcd60e51b81526004016107149061329c565b33600090815260056020526040902054611b5c908363ffffffff6120b416565b33600090815260056020526040902055505050565b6003600154600160a01b900460ff166007811115611b8b57fe5b1480611bae57506006600154600160a01b900460ff166007811115611bac57fe5b145b611bca5760405162461bcd60e51b81526004016107149061337c565b6000546001600160a01b03838116911614611bf75760405162461bcd60e51b81526004016107149061335c565b6013548114611c185760405162461bcd60e51b81526004016107149061342c565b611c2b4262278d0063ffffffff6120b416565b600d5410611c4b5760405162461bcd60e51b81526004016107149061331c565b600b805460010190819055600a5460009110611d0957611c69610bdc565b6001600160a01b03166330e82803611c7f610954565b306040518363ffffffff1660e01b8152600401611c9d9291906131b2565b60206040518083038186803b158015611cb557600080fd5b505afa158015611cc9573d6000803e3d6000fd5b505050506040513d601f19601f82011682018060405250611ced91908101906125d8565b6009546015559050611cff6004611f92565b6000600d55611e5f565b611d136003611f92565b600d54611d299062278d0063ffffffff6120b416565b600d55601554600954600091611d45919063ffffffff61211b16565b90506000611d7c670de0b6b3a7640000610e60601454611d70600a5487611e7590919063ffffffff16565b9063ffffffff611e7516565b90506000611d958260135461211b90919063ffffffff16565b601554909150611dab908263ffffffff6120b416565b601555611e59670de0b6b3a7640000610e60611dc5610bdc565b6001600160a01b031663556f0dc76040518163ffffffff1660e01b815260040160206040518083038186803b158015611dfd57600080fd5b505afa158015611e11573d6000803e3d6000fd5b505050506040513d601f19601f82011682018060405250611e3591908101906125d8565b600a0a611d70600954610e60670de0b6b3a764000088611e7590919063ffffffff16565b93505050505b600054611431906001600160a01b031682612183565b600082611e845750600061093b565b82820282848281611e9157fe5b0414611eaf5760405162461bcd60e51b81526004016107149061336c565b9392505050565b60008151604114611ec95750600061093b565b60208201516040830151606084015160001a7f7fffffffffffffffffffffffffffffff5d576e7357a4501ddfe92f46681b20a0821115611f0f576000935050505061093b565b8060ff16601b14158015611f2757508060ff16601c14155b15611f38576000935050505061093b565b60018682858560405160008152602001604052604051611f5b9493929190613211565b6020604051602081039080840390855afa158015611f7d573d6000803e3d6000fd5b5050604051601f190151979650505050505050565b600154600160a01b900460ff166007811115611faa57fe5b816007811115611fb657fe5b14610a2e57806007811115611fc757fe5b600154600160a01b900460ff166007811115611fdf57fe5b6040517fe1377aa21d49fa10bb9ece6a0cd4f75597a90a80c3750f7f7674967f49ab9a6290600090a36001805482919060ff60a01b1916600160a01b83600781111561202757fe5b021790555050565b60015460405163a9059cbb60e01b81526000916001600160a01b03169063a9059cbb90612062908690869060040161316a565b602060405180830381600087803b15801561207c57600080fd5b505af1158015612090573d6000803e3d6000fd5b505050506040513d601f19601f82011682018060405250611eaf919081019061259c565b600082820183811015611eaf5760405162461bcd60e51b8152600401610714906132bc565b6000611eaf83836040518060400160405280601a81526020017f536166654d6174683a206469766973696f6e206279207a65726f000000000000815250612227565b6000611eaf83836040518060400160405280601e81526020017f536166654d6174683a207375627472616374696f6e206f766572666c6f77000081525061225e565b612167828261202f565b610eb85760405162461bcd60e51b8152600401610714906133fc565b61218b610bdc565b6001600160a01b031663f3d490db6121a1610954565b604080516000815260208101918290526001600160e01b031960e085901b169091526121d5919086908690602481016131cd565b602060405180830381600087803b1580156121ef57600080fd5b505af1158015612203573d6000803e3d6000fd5b505050506040513d601f19601f8201168201806040525061143191908101906125d8565b600081836122485760405162461bcd60e51b8152600401610714919061324f565b50600083858161225457fe5b0495945050505050565b600081848411156122825760405162461bcd60e51b8152600401610714919061324f565b505050900390565b828054600181600116156101000203166002900490600052602060002090601f016020900481019282601f106122cb5782800160ff198235161785556122f8565b828001600101855582156122f8579182015b828111156122f85782358255916020019190600101906122dd565b506123049291506123c7565b5090565b81546001816001161561010002031660029004825481601f106123635782601f10612348575b826008026101000360020a80910402828001178355611431565b60ff1916836000526020600020558180016001018355611431565b82601f10612393575082600052602060002080549082601f016020900481019061238d91906123c7565b5061232e565b5081800160010183558181111561143157601f016020900481601f0160209004836000526020600020918201910161143191905b6108b791905b8082111561230457600081556001016123cd565b803561093b8161354e565b805161093b81613562565b803561093b8161356b565b805161093b8161356b565b60008083601f84011261241f57600080fd5b50813567ffffffffffffffff81111561243757600080fd5b60208301915083600182028301111561244f57600080fd5b9250929050565b600082601f83011261246757600080fd5b813561247a61247582613463565b61343c565b9150808252602083016020830185838301111561249657600080fd5b6124a18382846134eb565b50505092915050565b805161093b81613574565b6000602082840312156124c757600080fd5b60006124d384846123e1565b949350505050565b60008060008060008060008060c0898b0312156124f757600080fd5b60006125038b8b6123e1565b98505060206125148b828c016123e1565b97505060406125258b828c016123e1565b96505060606125368b828c016123f7565b955050608089013567ffffffffffffffff81111561255357600080fd5b61255f8b828c0161240d565b945094505060a089013567ffffffffffffffff81111561257e57600080fd5b61258a8b828c0161240d565b92509250509295985092959890939650565b6000602082840312156125ae57600080fd5b60006124d384846123ec565b6000602082840312156125cc57600080fd5b60006124d384846123f7565b6000602082840312156125ea57600080fd5b60006124d38484612402565b6000806020838503121561260957600080fd5b823567ffffffffffffffff81111561262057600080fd5b61262c8582860161240d565b92509250509250929050565b6000806040838503121561264b57600080fd5b823567ffffffffffffffff81111561266257600080fd5b61266e85828601612456565b925050602061267f858286016123e1565b9150509250929050565b60006020828403121561269b57600080fd5b60006124d384846124aa565b6000611eaf838361279c565b6126bc816134d5565b82525050565b6126bc8161349e565b6126bc6126d78261349e565b613523565b60006126e782613491565b6126f18185613495565b9350836020820285016127038561348b565b8060005b8581101561273d578484038952815161272085826126a7565b945061272b8361348b565b60209a909a0199925050600101612707565b5091979650505050505050565b6126bc816134a9565b6126bc816108b7565b6126bc612768826108b7565b6108b7565b600061277882613491565b612782818561083b565b93506127928185602086016134f7565b9290920192915050565b60006127a782613491565b6127b18185613495565b93506127c18185602086016134f7565b6127ca81613534565b9093019392505050565b6126bc816134ae565b6126bc816134e0565b60006127f3602183613495565b7f486f757374656361204c6f616e3a204e6f20616d6f756e7420696e76657374658152601960fa1b602082015260400192915050565b6000612836602a83613495565b7f486f757374656361204c6f616e3a204e6f7420656e6f7567682066756e6473208152691d1bc818dbdb1b1958dd60b21b602082015260400192915050565b6000612882602c83613495565b7f486f757374656361204c6f616e3a20416d6f756e742073656e74206f7665722081526b7265717569726564206f6e6560a01b602082015260400192915050565b60006128d0603083613495565b7f486f757374656361204c6f616e3a20596f752063616e6e6f7420706572666f7281526f36903a3434b99037b832b930ba34b7b760811b602082015260400192915050565b6000612922601b83613495565b7f536166654d6174683a206164646974696f6e206f766572666c6f770000000000815260200192915050565b600061295b603a83613495565b7f486f757374656361204c6f616e3a204f6e6c7920616e20696e766573746f722081527f63616e20706572666f726d2074686973206f7065726174696f6e000000000000602082015260400192915050565b60006129ba602d83613495565b7f486f757374656361204c6f616e3a2054686520646f63756d656e74206973206181526c1b1c9958591e481cda59db9959609a1b602082015260400192915050565b6000612a09603e83613495565b7f486f757374656361204c6f616e3a204f6e6c792074686520626f72726f77657281527f2063616e206465706f7369742074686520696e697469616c207374616b650000602082015260400192915050565b6000612a68603883613495565b7f486f757374656361204c6f616e3a204f6e6c7920696e766573746f727320636181527f6e20706572666f726d2074686973206f7065726174696f6e0000000000000000602082015260400192915050565b6000612ac7602483613495565b7f486f757374656361204c6f63616e3a205369676e617475726573206e6f7420728152636561647960e01b602082015260400192915050565b6000612b0d602483613495565b7f486f757374656361204c6f616e3a20697420697320746f6f20736f6f6e20746f8152632070617960e01b602082015260400192915050565b6000612b53602083613495565b7f486f757374656361204c6f616e3a20496e76616c6964207369676e6174757265815260200192915050565b6000612b8c602c83613495565b7f486f757374656361204c6f616e3a20496e76616c69642045524337373720746f81526b35b2b7103932b1b2b4bb32b960a11b602082015260400192915050565b6000612bda602683613495565b7f486f757374656361204c6f616e3a20416e20696e766573746f722069732072658152651c5d5a5c995960d21b602082015260400192915050565b6000612c22602883613495565b7f486f757374656361204c6f616e3a204f6e6c792074686520626f72726f7765728152672063616e2070617960c01b602082015260400192915050565b6000612c6c602183613495565b7f536166654d6174683a206d756c7469706c69636174696f6e206f766572666c6f8152607760f81b602082015260400192915050565b6000612caf604283613495565b7f486f757374656361204c6f616e3a2043616e6e6f7420706572666f726d20746881527f6973206f7065726174696f6e20696e207468652063757272656e742073746174602082015261757360f01b604082015260600192915050565b6000612d19603e83613495565b7f486f757374656361204c6f63616e3a204f6e6c7920746865206c6f63616c206e81527f6f64652063616e20706572666f726d2074686973206f7065726174696f6e0000602082015260400192915050565b6000612d78603d83613495565b7f486f757374656361204c6f616e3a204f6e6c7920746865206c6f63616c206e6f81527f64652063616e20706572666f726d2074686973206f7065726174696f6e000000602082015260400192915050565b6000612dd760158361083b565b74115490cdcdcdd51bdad95b9cd49958da5c1a595b9d605a1b815260150192915050565b6000612e08603083613495565b7f486f757374656361204c6f616e3a20496e76616c69642073746174757320666f81526f39103a3434b99037b832b930ba34b7b760811b602082015260400192915050565b6000612e5a603b83613495565b7f486f757374656361204c6f616e3a204f6e6c792074686520626f72726f77657281527f2063616e20706572666f726d2074686973206f7065726174696f6e0000000000602082015260400192915050565b6000612eb9601d83613495565b7f486f757374656361204c6f616e3a20496e76616c696420737461747573000000815260200192915050565b6000612ef2603783613495565b7f486f757374656361204c6f616e3a205468697320636f6e747261637420646f6581527f73206e6f7420616363657074207375636820746f6b656e000000000000000000602082015260400192915050565b6000612f51603d83613495565b7f486f757374656361204c6f616e3a20596f75206861766520616c72656164792081527f636f6c6c6563746564207468652070726f706572747920746f6b656e73000000602082015260400192915050565b6000612fb0602483613495565b7f486f757374656361204c6f616e3a20546f6b656e207472616e736665722066618152631a5b195960e21b602082015260400192915050565b6000612ff6603e83613495565b7f486f757374656361204c6f616e3a2043616e6e6f74206163636570742045524381527f3737372066756e647320696e207468652063757272656e742073746174650000602082015260400192915050565b6000613055602b83613495565b7f486f757374656361204c6f616e3a20696e76616c696420696e697469616c207381526a1d185ad948185b5bdd5b9d60aa1b602082015260400192915050565b60006130a2602483613495565b7f486f757374656361204c6f616e3a20496e76616c696420616d6f756e7420746f8152632070617960e01b602082015260400192915050565b6126bc816134cf565b60006130f082846126cb565b50601401919050565b6000613105828561276d565b9150613111828461275c565b5060200192915050565b600061093b82612dca565b6020810161093b82846126c2565b6060810161314282866126b3565b61314f60208301856126c2565b6124d36040830184612753565b6060810161314282866126c2565b6040810161317882856126c2565b611eaf6020830184612753565b60208082528101611eaf81846126dc565b6020810161093b828461274a565b6020810161093b8284612753565b604081016131c08285612753565b611eaf60208301846126c2565b608081016131db8287612753565b6131e860208301866126c2565b6131f56040830185612753565b8181036060830152613207818461279c565b9695505050505050565b6080810161321f8287612753565b61322c60208301866130db565b6132396040830185612753565b6132466060830184612753565b95945050505050565b60208082528101611eaf818461279c565b6020810161093b82846127d4565b6020810161093b82846127dd565b6020808252810161093b816127e6565b6020808252810161093b81612829565b6020808252810161093b81612875565b6020808252810161093b816128c3565b6020808252810161093b81612915565b6020808252810161093b8161294e565b6020808252810161093b816129ad565b6020808252810161093b816129fc565b6020808252810161093b81612a5b565b6020808252810161093b81612aba565b6020808252810161093b81612b00565b6020808252810161093b81612b46565b6020808252810161093b81612b7f565b6020808252810161093b81612bcd565b6020808252810161093b81612c15565b6020808252810161093b81612c5f565b6020808252810161093b81612ca2565b6020808252810161093b81612d0c565b6020808252810161093b81612d6b565b6020808252810161093b81612dfb565b6020808252810161093b81612e4d565b6020808252810161093b81612eac565b6020808252810161093b81612ee5565b6020808252810161093b81612f44565b6020808252810161093b81612fa3565b6020808252810161093b81612fe9565b6020808252810161093b81613048565b6020808252810161093b81613095565b60405181810167ffffffffffffffff8111828210171561345b57600080fd5b604052919050565b600067ffffffffffffffff82111561347a57600080fd5b506020601f91909101601f19160190565b60200190565b5190565b90815260200190565b600061093b826134c3565b151590565b600061093b8261349e565b8061083b81613544565b6001600160a01b031690565b60ff1690565b600061093b826134ae565b600061093b826134b9565b82818337506000910152565b60005b838110156135125781810151838201526020016134fa565b838111156108955750506000910152565b600061093b82600061093b8261353e565b601f01601f191690565b60601b90565b60088110610a2e57fe5b6135578161349e565b8114610a2e57600080fd5b613557816134a9565b613557816108b7565b613557816134ae56fea365627a7a72315820f9ca8407ceaa4b72dbb1a275af771014b344bbda7d737f3d920c802ce3acc4ed6c6578706572696d656e74616cf564736f6c634300050d0040486f7573746563613a2074686520706572696f6420746f206372656174652074686520696e766573746d656e74206861732065787069726564486f7573746563613a20546865207061796d656e7420616d6f756e74206d7573742062652067726561746572207468616e207a65726f486f7573746563613a205468657265206973206e6f20696e766573746d656e742070726f706f73616c20666f7220746869732061646472657373486f7573746563613a2054617267657420616d6f756e74206d7573742062652067726561746572207468616e207a65726f486f7573746563613a2054686520626f72726f7765722063616e6e6f7420616c7265616479206f776e2031303025206f66207468652070726f7065727479486f7573746563613a20496e73756666696369656e742061646d696e6973747261746f722070726976696c65676573536166654d6174683a206d756c7469706c69636174696f6e206f766572666c6f77486f7573746563613a204d7573742070726f766964652061206c6576656c2067726561746572207468616e207a65726f486f7573746563613a2054686520746f74616c206e756d626572206f66207061796d656e7473206d7573742062652067726561746572207468616e207a65726f486f7573746563613a2054686520746f6b656e206d7573742062652076616c6964a265627a7a72315820f6f26a4166133fccf61973fb9180b55f1f33f3d9ac47db6c44b0ac2a460a00fe64736f6c634300050d0032",
  "source": "pragma solidity 0.5.13;\n\nimport \"./Loan.sol\";\nimport \"./Property.sol\";\nimport \"openzeppelin-solidity/contracts/math/Math.sol\";\nimport \"openzeppelin-solidity/contracts/math/SafeMath.sol\";\n\n\ncontract Housteca\n{\n    ///////////// Constants /////////////\n\n    /// Maximum level of administration of Housteca's contract\n    uint8 constant public ADMIN_ROOT_LEVEL = 255;\n    /// Number of seconds to keep a proposal alive\n    uint constant public PROPOSAL_GRACE_PERIOD = 15 days;\n    /// The number to multiply ratios for (solidity doesn't store floating point numbers)\n    uint constant public RATIO = 10 ** 18;\n\n\n    ///////////// Libraries /////////////\n\n    using SafeMath for uint;\n\n\n    ///////////// Structs /////////////\n\n    struct Administrator\n    {\n        uint8 level;\n        uint minimumFeeAmount;\n        uint feeRatio;\n    }\n\n    struct InvestmentProposal\n    {\n        address localNode;\n        string symbol;\n        uint downpaymentRatio;\n        uint targetAmount;\n        uint totalPayments;\n        uint insuredPayments;\n        uint paymentAmount;\n        uint perPaymentInterestRatio;\n        uint localNodeFeeAmount;\n        uint houstecaFeeAmount;\n        uint created;\n    }\n\n\n    ///////////// Events /////////////\n\n    event AdminAdded(\n        address indexed admin,\n        uint8 indexed level\n    );\n    event AdminRemoved(\n        address indexed admin,\n        uint8 indexed level\n    );\n    event InvestorAdded(\n        address indexed investor\n    );\n    event InvestorRemoved(\n        address indexed investor\n    );\n    event TokenAdded(\n        string symbol,\n        address indexed contractAddress\n    );\n    event TokenRemoved(\n        string symbol,\n        address indexed contractAddress\n    );\n    event InvestmentProposalCreated(\n        address indexed borrower,\n        string symbol,\n        uint targetAmount,\n        uint insuredPayments,\n        uint totalPayments,\n        uint paymentAmount,\n        uint perPaymentInterestRatio\n    );\n    event InvestmentProposalRemoved(\n        address indexed borrower\n    );\n    event InvestmentCreated(\n        address borrower,\n        address localNode,\n        string symbol,\n        uint downpaymentRatio,\n        uint targetAmount,\n        uint totalPayments,\n        uint insuredPayments,\n        uint paymentAmount,\n        uint localNodeFeeAmount,\n        uint houstecaFeeAmount\n    );\n\n\n    ///////////// Attributes /////////////\n\n    mapping (address => Administrator) public _admins;\n    mapping (address => bool) public _investors;\n    mapping (string => address) public _tokens;\n    mapping (address => InvestmentProposal) public _proposals;\n    uint public _houstecaMinimumFeeAmount;\n    uint public _houstecaFeeRatio;\n    Property public _propertyToken;\n    address[] public _loans;\n\n\n    ///////////// Modifiers /////////////\n\n    modifier hasPermissions(uint8 level)\n    {\n        require(_admins[msg.sender].level >= level, \"Housteca: Insufficient administrator privileges\");\n        _;\n    }\n\n\n    ///////////// View functions /////////////\n\n    function getToken(\n        string memory symbol\n    )\n      public\n      view\n      returns (address)\n    {\n        address tokenAddress = _tokens[symbol];\n        require(tokenAddress != address(0), \"Housteca: The token must be valid\");\n\n        return tokenAddress;\n    }\n\n    function isInvestor(\n        address addr\n    )\n      public\n      view\n      returns (bool)\n    {\n        return _investors[addr];\n    }\n\n    function isAdmin(\n        address addr\n    )\n      public\n      view\n      returns (bool)\n    {\n        return _admins[addr].level >= ADMIN_ROOT_LEVEL - 1;\n    }\n\n    function isLocalNode(\n        address addr\n    )\n      public\n      view\n      returns (bool)\n    {\n        return _admins[addr].level == ADMIN_ROOT_LEVEL - 2;\n    }\n\n    function loans()\n      public\n      view\n      returns (address[] memory)\n    {\n        return _loans;\n    }\n\n\n    ///////////// Admin functions /////////////\n\n    constructor(address propertyToken)\n      public\n    {\n        _admins[msg.sender].level = ADMIN_ROOT_LEVEL;\n        _propertyToken = Property(propertyToken);\n        emit AdminAdded(msg.sender, ADMIN_ROOT_LEVEL);\n    }\n\n    function addAdmin(\n        address addr,\n        uint8 level,\n        uint minimumFeeAmount,\n        uint feeRatio\n    )\n      external\n      hasPermissions(ADMIN_ROOT_LEVEL - 1)\n    {\n        require(level > 0, \"Housteca: Must provide a level greater than zero\");\n\n        emit AdminAdded(addr, level);\n        _admins[addr] = Administrator({\n            level: level,\n            minimumFeeAmount: minimumFeeAmount,\n            feeRatio: feeRatio\n        });\n    }\n\n    function removeAdmin(\n        address addr\n    )\n      external\n      hasPermissions(_admins[addr].level + 1)\n    {\n        emit AdminRemoved(addr, _admins[addr].level);\n        delete _admins[addr];\n    }\n\n    function setHoustecaMinimumFeeAmount(\n        uint houstecaMinimumFeeAmount\n    )\n      external\n      hasPermissions(ADMIN_ROOT_LEVEL - 1)\n    {\n        _houstecaMinimumFeeAmount = houstecaMinimumFeeAmount;\n    }\n\n    function setHoustecaFeeRatio(\n        uint houstecaFeeRatio\n    )\n      external\n      hasPermissions(ADMIN_ROOT_LEVEL - 1)\n    {\n        _houstecaFeeRatio = houstecaFeeRatio;\n    }\n\n    function addToken(\n        string calldata symbol,\n        address tokenAddress\n    )\n      external\n      hasPermissions(ADMIN_ROOT_LEVEL - 1)\n    {\n        emit TokenAdded(symbol, tokenAddress);\n        _tokens[symbol] = tokenAddress;\n    }\n\n    function removeToken(\n        string calldata symbol\n    )\n      external\n      hasPermissions(ADMIN_ROOT_LEVEL - 1)\n    {\n        emit TokenRemoved(symbol, address(_tokens[symbol]));\n        delete _tokens[symbol];\n    }\n\n    function addInvestor(\n        address investor\n    )\n      external\n      hasPermissions(ADMIN_ROOT_LEVEL - 2)\n    {\n        emit InvestorAdded(investor);\n        _investors[investor] = true;\n    }\n\n    function removeInvestor(\n        address investor\n    )\n      external\n      hasPermissions(ADMIN_ROOT_LEVEL - 2)\n    {\n        emit InvestorRemoved(investor);\n        delete _investors[investor];\n    }\n\n    function _getFee(\n        uint minimumFeeAmount,\n        uint feeRatio,\n        uint amount\n    )\n      internal\n      pure\n      returns (uint)\n    {\n        return Math.max(minimumFeeAmount, amount.mul(feeRatio).div(RATIO));\n    }\n\n    function createInvestmentProposal(\n        address borrower,\n        string calldata symbol,\n        uint downpaymentRatio,\n        uint targetAmount,\n        uint totalPayments,\n        uint insuredPayments,\n        uint paymentAmount,\n        uint perPaymentInterestRatio\n    )\n      external\n      hasPermissions(ADMIN_ROOT_LEVEL - 2)\n    {\n        require(targetAmount > 0, \"Housteca: Target amount must be greater than zero\");\n        require(paymentAmount > 0, \"Housteca: The payment amount must be greater than zero\");\n        require(totalPayments > 0, \"Housteca: The total number of payments must be greater than zero\");\n        require(downpaymentRatio < RATIO, \"Housteca: The borrower cannot already own 100% of the property\");\n        require(address(_tokens[symbol]) != address(0), \"Housteca: Invalid token symbol\");\n\n        Administrator storage admin = _admins[msg.sender];\n        _proposals[borrower] = InvestmentProposal({\n            localNode: msg.sender,\n            symbol: symbol,\n            downpaymentRatio: downpaymentRatio,\n            targetAmount: targetAmount,\n            totalPayments: totalPayments,\n            insuredPayments: insuredPayments,\n            paymentAmount: paymentAmount,\n            perPaymentInterestRatio: perPaymentInterestRatio,\n            localNodeFeeAmount: _getFee(admin.minimumFeeAmount, admin.feeRatio, targetAmount),\n            houstecaFeeAmount: _getFee(_houstecaMinimumFeeAmount, _houstecaFeeRatio, targetAmount),\n            created: block.timestamp\n        });\n\n        emit InvestmentProposalCreated(borrower, symbol, targetAmount, insuredPayments, totalPayments, paymentAmount, perPaymentInterestRatio);\n    }\n\n    function removeInvestmentProposal(\n        address borrower\n    )\n      external\n      hasPermissions(ADMIN_ROOT_LEVEL - 2)\n    {\n        emit InvestmentProposalRemoved(borrower);\n        delete _proposals[borrower];\n    }\n\n    function createInvestment()\n      external\n    {\n        InvestmentProposal storage proposal = _proposals[msg.sender];\n        require(proposal.targetAmount > 0, \"Housteca: There is no investment proposal for this address\");\n        require(proposal.created.add(PROPOSAL_GRACE_PERIOD) < block.timestamp, \"Housteca: the period to create the investment has expired\");\n\n        // first create the contract\n        address tokenAddress = getToken(proposal.symbol);\n        Loan loan = new Loan(\n            this,\n            proposal.localNode,\n            tokenAddress,\n            proposal.downpaymentRatio,\n            proposal.targetAmount,\n            proposal.totalPayments,\n            proposal.insuredPayments,\n            proposal.paymentAmount,\n            proposal.perPaymentInterestRatio,\n            proposal.localNodeFeeAmount,\n            proposal.houstecaFeeAmount\n        );\n        _loans.push(address(loan));\n\n        // once we have the contract's address, create the tokens\n        _propertyToken.issueByPartition(\n            keccak256(abi.encodePacked(address(loan))),\n            address(loan),\n            10 ** _propertyToken.granularity(),\n            new bytes(0)\n        );\n\n        // lastly, emit the event\n        emit InvestmentCreated(\n            msg.sender,\n            proposal.localNode,\n            proposal.symbol,\n            proposal.downpaymentRatio,\n            proposal.targetAmount,\n            proposal.totalPayments,\n            proposal.insuredPayments,\n            proposal.paymentAmount,\n            proposal.localNodeFeeAmount,\n            proposal.houstecaFeeAmount\n        );\n    }\n}\n\n",
  "sourcePath": "/home/jredondoh/block/tfm/Housteca/contracts/Housteca.sol",
  "compiler": {
    "name": "solc",
    "version": "0.5.13+commit.5b0b510c.Emscripten.clang"
  },
  "schemaVersion": "3.0.11",
  "updatedAt": "2019-12-10T21:06:14.917Z",
  "devdoc": {
    "methods": {}
  },
  "userdoc": {
    "methods": {
      "constructor": "////////// Admin functions /////////////",
      "getToken(string)": {
        "notice": "////////// View functions /////////////"
      }
    }
  }
}